:07262B00E47875F618F622B1
:10246500C207A2AF9208C2AF7975E77874667002A9
:08247500D207A20892AFA207F2
:01247D00223C
:07236100C4540FFF1225B068
:10236800A2AF9209C2AF7874E604543FF6E624326D
:07237800F8A607A20992AFCD
:01237F00223B
:10241700A2AF9207C2AF7875E604543FF6E62432BE
:09242700F8E6A807F6A20792AF3F
:012430002289
:07263200E47873F618F622AC
:1024B000A2AF9207C2AF7872E604540FF6E6242268
:0724C000F8A607A20792AF86
:0124C70022F2
:10243100A2AF9209C2AF7873E604540FF6E62422E4
:09244100F8E6A807F6A20992AF23
:01244A00226F
:0F25B000EFC3940AEF50042430FF222437FF2298
:1025A000AE07EE122361EE540FFF1225B00223682E
:1022D400AD07AC06EC122361EC122362ECC4F85493
:1022E400F0C8EDC4540F48122362ED540FFF1225B9
:0422F400B0022368A9
:0626390012262B022632DE
:0D20110041009B00C105C104C1068102A869
:0426800053D9BF2249
:10256B0043B280E5B230E6FB75EF0475B640E4F597
:02257B00A92293
:10233F0075981053890F758DE5438E08858D8B53D6
:10234F00890F438920D28E43A81053B8EFD2ACD255
:02235F009922C1
:08000300200404D204D299226A
:03002300021E8931
:101E8900C0E0C0F0C083C082C0D075D000C000C01F
:101E990001C002C003C004C005C006C007309815C0
:101EA900784BE599F2C298E2FFB40D0690009BE0E9
:051EB90004F01224B04A
:031EBE0030991543
:101EC100C299122465400C7FAA12241778AAE6F55C
:051ED100998002C2042B
:101ED600D007D006D005D004D003D002D001D00060
:0B1EE600D0D0D082D083D0F0D0E0320A
:10257D00438902438E02758CCDD28C53B8FD43A88E
:02258D00022228
:03000B000224C804
:1024C800C0E0C0D075D000C00078A906E618700139
:0824D80006D000D0D0D0E032A4
:02260500A80724
:09260700C2AFE6FE08E6FFD2AF07
:0126100022A7
:08261B007802E2FF12260522FD
:0300830002225FF7
:10225F00C0E0C0D075D000C000C007D205C2AF78B3
:10226F00A8E6FF08E67800CFF208EFF2D2AFD0076A
:07227F00D000D0D0D0E03206
:10231C00E4F5A443A41075D44D75C740F5A575A775
:10232C000F75A4FF75A5FFF5A775E10575E340755D
:03233C00E7022293
:04228600784DE2FFAE
:10228A00900096E0248DF582E43400F583EDF07831
:10229A00D7F6E4FD122690C3EE648094804002D300
:0222AA0022C34D
:0122AC00220F
:1014EF00784DEFF27D5A12228A500CE4900098F05A
:1014FF00900099F07F5A227D51122286500F900052
:10150F0098740CF09000997402F07F51227D521262
:10151F002286500F900098740CF09000997402F08E
:10152F007F5222784DE2FF7D5312228A500F900096
:10153F0098740CF09000997402F07F5322784DE26A
:10154F00FF7D6112228A500F900098740CF090006A
:10155F00997402F07F6122784DE2FF7D6212228A38
:10156F00500F900098740CF09000997402F07F6205
:10157F0022784DE2FF7D6312228A500F90009874FB
:10158F000CF09000997402F07F6322784DE2FF7D9A
:10159F006012228A500CE4900098F0900099F07F2E
:1015AF006022784DE2FF7D5512228A500F900098ED
:1015BF00740CF09000997402F07F5522784DE2FF81
:1015CF007D6512228A500F900098740CF09000994C
:1015DF007402F07F6522784DE2FF7D6612228A50F9
:1015EF000F900098740CF09000997402F07F6622AF
:1015FF00784DE2FF7D6712228A500F900098740C8D
:10160F00F09000997402F07F6722900096E0248D8D
:10161F00F582E43400F583747FF078D7F67F0022EB
:101E0A00900096E01425E024B4784CF2E4FF122600
:101E1A0080D206E5EF20E105E5EF30E002C20612C6
:101E2A00256B12233F12257D12231C7F28121EF1D7
:101E3A00122639D2AF1225DC1225DC1225DC784CA9
:101E4A00E2FF1214EFEF7002D20620061BEF6018B1
:101E5A0024A0600424067009784CE2FF12268480CC
:101E6A0007784CE2FF12262390009BE060031216CB
:0F1E7A002F3005F4900096E060EE12045480E9DA
:03269C0011231DEA
:09201E008107FF840300000000AB
:0D1D8A00784FEFF208EBF208EAF208E9F2F8
:101D9700087C007DFE7BFF7A26799C7E007F0312FC
:101DA7000156785A74FEF2087400F2087453F278F8
:101DB70050E2FB08E2FA08E2F9E4FF12124F785A00
:101DC70074FEF2087400F2087453F27F0112124590
:101DD700785A74FEF2087400F2087453F27F021204
:101DE70012457850E2FB08E2FA08E2F912139CEF79
:101DF7006010784FE2FF08E2FB08E2FA08E2F91206
:021E070022F8BF
:011E090022B6
:10139C00E47856F2900008120221FFAEF0E4FCFD56
:1013AC0078571203F3E4FFFEFDFC7803E2FB08E23E
:1013BC00F908E2FA08E2CBF8C31203BC70147857B0
:1013CC00E2FC08E2FD08E2FE08E2FF78031203F3F8
:1013DC00801EE47F807EBBFDFC7857E2FB08E2F9BF
:1013EC0008E2FA08E2CBF8D31203BC40030214EA79
:1013FC00E47B02FAF9F8C0007803E2FC08E2FD088D
:10140C00E2FE08E2FFD00012031C7803E2FB08E2C4
:10141C00F908E2FA08E2CBF8EB2FFFEA3EFEE93DD1
:10142C00FDE83CFC7857E2FB08E2F908E2FA08E236
:10143C00CBF8C31203BC40030214D8E47B02FAF9C4
:10144C00F8C0007803E2FC08E2FD08E2FE08E2FFC7
:10145C00D00012031CC004A905AA06AB077803E24E
:10146C00FC08E2FD08E2FE08E2D000C39BFFEE9A06
:10147C00FEED99FDEC98FC7857E2FB08E2F908E2E6
:10148C00FA08E2CBF8D31203BC404178567401F24F
:10149C00E47F03FEFDFC7803E2FB08E2F908E2FAC4
:1014AC0008E2CBF81202917857E2FB08E2F908E265
:1014BC00FA08E2CBF8EB2FFFEA3EFEE93DFDE83CF3
:1014CC00FCE47B04FAF9F812031C800D7857E2FC5B
:1014DC0008E2FD08E2FE08E2FF78031203F37856F7
:0214EC00E2FF1D
:0114EE0022DB
:0A1245007850E2FB08E2FA08E2F933
:0D124F007856EFF208EBF208EAF208E9F237
:10125C00900008120221FFAEF0E4FCFD785D120351
:10126C00F37856E214603114605B240260030213BD
:10127C00037857E2FB08E2FA08E2240AF9E43AFAA6
:10128C007865EBF208EAF208E9F2785AE2F908E23A
:10129C00FA08E27868C980587857E2FB08E2FA0845
:1012AC00E2240CF9E43AFA7865EBF208EAF208E980
:1012BC00F2785AE2FB08E2FA08E22401F9E43AFA7D
:1012CC007868EB802B7857E2FB08E2FA08E2240EF0
:1012DC00F9E43AFA7865EBF208EAF208E9F2785A9E
:1012EC00E2FB08E2FA08E22402F9E43AFA7868EB45
:1012FC00F208EAF208E9F27865E2FB08E2FA08E2A1
:10130C00F91201F6FFE4FCFD785DE2FB08E2F90856
:10131C00E2FA08E2CBF8EB2FFFEA35F0FEED39FDEF
:10132C00EC38FCE42FFFEE34FEFEED34FFFDEC3424
:10133C00FFFCC004C005C006C0077868E2FB08E2E9
:10134C00FA08E2F912017CFFE4FCFDFED003D002A6
:10135C00D001D00012029178611203F37861E2FCA3
:10136C0008E2FD08E2FE08E2FFE47B107A27F9F8B8
:10137C0012031C78611203F378610808E2FE08E29C
:10138C00FF08E2FB08E2FA08E2F9EE8FF0020259DC
:0422F8007856EFF233
:1022FC0090000A120221D394B0E5F094047807E21E
:0F230C00400454E08002441FF2FD7F011225556A
:01231B00229F
:0E25CE00784FEFF208EBF208EAF208E9F22289
:10000E000F0F0081014400020100010001010101F6
:03001E00010204D8
:04268400120DCB2246
:040DCB00784DEFF27E
:100DCF00E408F208F2FB7D0812268C784FE22FF22E
:100DDF0018E23EF218E2FFE4FB7D0A12268C784FF0
:100DEF00E22FF218E23EF218E2FFE4FB7D09122631
:100DFF008C784FE22FF218E23EF218E2FF12082031
:090E0F00784FE22FF218E23EF2E6
:100E180090000FE493C454F0FF90000EE4932F78F1
:100E280050F2FB900010E49308F2784DE2FF7D0F3A
:100E380012268C784FE22FF218E23EF218E2FF7881
:100E480051E2FB7D1012268C784FE22FF218E23E19
:010E5800F2A7
:100E590018E2FF7B017A00796F78567401F2122546
:100E69008F784DE2FF78567401F2087400F2087425
:100E79006FF27B007A007900122380784DE2FF90AF
:100E89000011E493FB7D011219BF784FE22FF2188C
:100E9900E23EF218E2FF7B017D0312268C784FE2D5
:100EA9002FF218E23EF218E2FF7B1D7D0412268C18
:100EB900784FE22FF218E23EF218E2FF90001AE4AE
:100EC9009375F003A4FB7D071219BF784FE22FF247
:100ED90018E23EF218E2FF90001BE49375F003A4B8
:100EE900FB7D081219BF784FE22FF218E23EF21883
:100EF900E2FF90001CE49375F003A4FB7D0912192D
:100F0900BF784FE22FF218E23EF218E2FF90001D7F
:100F1900E49375F003A4FB7D0E1219BF784FE22FFD
:100F2900F218E23EF218E2FF900015E493FB7D0B04
:100F39001219BF784FE22FF218E23EF218E2FF9041
:100F49000017E493FB7D1E1219BF784FE22FF218A8
:100F5900E23EF218E2FF900019E493FB7D111219A9
:100F6900BF784FE22FF218E23EF218E2FF90001F1D
:100F7900E493C454F0FE90001EE4932EFB7D02120C
:100F890019BF784FE22FF218E23EF218E2FF900003
:100F990020E493FB7D031219BF784FE22FF218E288
:100FA9003EF218E2FF7B707D0A1219BF784FE22FDB
:100FB900F218E23EF218E2FF7B707D1D1219BF782C
:100FC9004FE22FF218E23EF218E2FF7B707D101219
:100FD90019BF784FE22FF218E23EF218E2FF9000B3
:100FE90014E493C43354E02404FB7D0C1219BF7834
:100FF9004FE22FF218E23EF218E2FF900016E49356
:10100900C43354E0FB7D1F1219BF784FE22FF21849
:10101900E23EF218E2FF900018E493C43354E0FB77
:101029007D121219BF784FE22FF218E23EF29000BA
:1010390012E493FC740193D39400EC9400403BECCC
:10104900FB18E2FF7D0912268C784FE22FF218E295
:101059003EF218E2FF900012E4740193FB7D08123E
:10106900268C784FE22FF218E23EF218E2FF1226A0
:1010790057784FE22FF218E23EF2784EE2FE08E28C
:01108900FF67
:01108A002243
:08262300784DEFF2E4FEFF2206
:042688007B6B010067
:04218500786CEFF291
:102189000874FFF2E408F2786EE2C394C8502C7820
:102199006CE2FF7D30122690786DEFF26401601BCE
:1021A900786DE2FFC3648094805006EF3395E0FEBA
:0E21B90022786EE204F21225EA80CCE4FEFFEA
:0121C70022F5
:04082000785DEFF21E
:10082400081203FF000000001225DC1225DC12254B
:10083400DC785EE2FB08E2F908E2FA08E2CBF8C0F1
:1008440000C001C002C003785DE2FFE4FB7D081232
:10085400268CEE3395E0FDFCD003D002D001D0000D
:10086400EB2FFFEA3EFEE93DFDE83CFC785E120317
:10087400F3785EE2FB08E2F908E2FA08E2CBF8C09A
:1008840000C001C002C003785DE2FFE4FB7D0912F1
:10089400268CEE3395E0FDFCD003D002D001D000CD
:1008A400EB2FFFEA3EFEE93DFDE83CFC785E1203D7
:1008B400F3785EE2FB08E2F908E2FA08E2CBF8C05A
:1008C40000C001C002C003785DE2FF121B27EE33B3
:1008D40095E0FDFCD003D002D001D000EB2FFFEA5D
:1008E4003EFEE93DFDE83CFC785E1203F3785EE2EF
:1008F400FB08E2F908E2FA08E2CBF8C000C001C044
:1009040002C003785DE2FFE4FB7D0812268CEE331F
:1009140095E0FDFCD003D002D001D000EB2FFFEA1C
:100924003EFEE93DFDE83CFC785E1203F3785EE2AE
:10093400FB08E2F908E2FA08E2CBF8C000C001C003
:1009440002C003785DE2FFE4FB7D0412268CEE33E3
:1009540095E0FDFCD003D002D001D000EB2FFFEADC
:100964003EFEE93DFDE83CFC785E1203F3785EE26E
:10097400FB08E2F908E2FA08E2CBF8C000C001C0C3
:1009840002C003785DE2FFE4FB7D0512268CEE33A2
:1009940095E0FDFCD003D002D001D000EB2FFFEA9C
:1009A4003EFEE93DFDE83CFC785E1203F3785EE22E
:1009B400FB08E2F908E2FA08E2CBF8C000C001C083
:1009C40002C003785DE2FFE4FB7D0612268CEE3361
:1009D40095E0FDFCD003D002D001D000EB2FFFEA5C
:1009E4003EFEE93DFDE83CFC785E1203F3785EE2EE
:1009F400FB08E2F908E2FA08E2CBF8C000C001C043
:100A040002C003785DE2FFE4FB7D0312268CEE3323
:100A140095E0FDFCD003D002D001D000EB2FFFEA1B
:100A24003EFEE93DFDE83CFC785E1203F3785EE2AD
:100A3400FB08E2F908E2FA08E2CBF8C000C001C002
:100A440002C003785DE2FF7BFF7D2112268CEE332A
:100A540095E0FDFCD003D002D001D000EB2FFFEADB
:100A64003EFEE93DFDE83CFC785E1203F3785EE26D
:100A7400FB08E2F908E2FA08E2CBF8C000C001C0C2
:100A840002C003785DE2FF7B017D1812268CEE33F1
:100A940095E0FDFCD003D002D001D000EB2FFFEA9B
:100AA4003EFEE93DFDE83CFC785E1203F31225DCD2
:100AB400785EE2FB08E2F908E2FA08E2CBF8C0004B
:100AC400C001C002C003785DE2FF7B177D071226D8
:100AD4008CEE3395E0FDFCD003D002D001D000EBC6
:100AE4002FFFEA3EFEE93DFDE83CFC785E1203F38D
:090AF400785E0808E2FE08E2FF4A
:010AFD0022D6
:07181F007867EDF218EFF20B
:10182600E4786BF27D201226907868EEF208EFF2EB
:10183600C3EE64809480500718E2FE08E2FF227827
:101846006BE2C394C8504F7866E2FF122185786A2E
:10185600EFF2600280527867E2603B7866E2FF7DD5
:1018660020122690786AEFF23395E0FE18E2B5076B
:101876000718E2B50602801E786AE2FDC36480940A
:1018860080500122EDFE3395E07868F208CEF278BA
:101896006BE204F280A97866E2FF08E2FB7D18128B
:1018A600268C786AEFF26007E2FF3395E0FE22E4C9
:1018B600786BF2786BE2C394C850377867E260328F
:1018C6007866E2FF7D20122690786AEFF23395E083
:1018D600FE18E26F700318E26E60028015786AE205
:1018E600C364809480500122786BE204F21225EAE8
:0518F60080C1E4FEFFCB
:0118FB0022CA
:06263F00E4FD12181F2249
:062645007D0512181F22A2
:06264B007D0612181F229B
:062651007D0712181F2294
:062657007D0F12181F2286
:0423DD007808EFF29B
:1023E100ED541F2480FEFD12181FEF4E600122786C
:0823F10008E2FF7D2E12269088
:0123F90022C1
:0B19BF007853EDF208EBF27852EFF2E3
:1019CA001221857855EEF208EFF24E6002804278D5
:1019DA0052E2FF7D201226907859EEF208EFF27853
:1019EA0054E27857F27853E2541F24A07858F278D8
:1019FA0052E2FF786074FEF2087400F2087457F23B
:101A0A007B027D171220AD7855EEF208EFF24E6098
:101A1A000718E2FE08E2FF227852E2FF7D20122632
:101A2A0090785BEEF208EFF27859E2FE08E2FF786E
:101A3A005CE2B5072518E2B506207852E2FF7D2060
:101A4A00122690785BEEF208EFF2785AE2B507D8E0
:101A5A0018E2B506D31225EA80CE7855E2FE08E2EE
:0D1A6A00FFC3EE64809480500122E4FEFF73
:011A7700224C
:06265D007D0B12181F2284
:041B27007862EFF2FF
:101B2B00E47865F27865E2640160167862E2FF7D25
:101B3B00301226907865EFF2640160E81225EA8096
:101B4B00E3E47863F2E47864F27864E2C394C85017
:101B5B00267862E2FF7D201226907865EFF2700204
:101B6B0080157862E2FFE4FB7D1812268C7864E224
:101B7B0004F21225EA80D27862E2FF12265DE47845
:101B8B0064F27864E2C394C850197862E2FF7D2056
:101B9B001226907865EFF2700A7864E204F212254F
:101BAB00EA80DF7862E2FF7D201226907865EFF203
:101BBB006401600B7863E204F2E2C394C84086E4EC
:021BCB00FEFF1B
:011BCD0022F5
:10206200E4FEEFC394085003E4FF22EF54F0C4549B
:102072000FFEEF540F7C004410FDEEC39404401594
:10208200EE24FCFFED7E00A807088005C333CE33A3
:10209200CED8F9FF22C374049EFFEDAE04A8070850
:0A20A2008005CEC313CE13D8F9FF5A
:0120AC002211
:09108B007809EEF2FA08EFF2FB1D
:10109400081203FF00000000780F1203FF00000095
:1010A4000078131203FF00000000EB4A7002FF22D5
:1010B4007809E2FC08E2FD4C7002FF22ED64014C69
:1010C40070037F0822780F1203FF000000007809E4
:1010D400E2FE08E2FFE4FCFD081203F3780BE2FCF5
:1010E40008E2FD08E2FE08E2FF78011203CD780B66
:1010F4001203F3780FE2FC08E2FD08E2FE08E224A2
:1011040001FFE43EFEE43DFDE43CFC780F1203F3F2
:10111400E47F01FEFDFC780BE2FB08E2F908E2FA49
:1011240008E2CBF8C31203BC70B2E47F05FEFDFCF9
:10113400780FE2FB08E2F908E2FA08E2CBF8C312FE
:1011440003BC5030780F080808E2FFC374049FFF03
:101154007809E2FE08E2A807088005C333CE33CE3F
:10116400D8F9FFE4FCFD78131203F3781308080898
:10117400E2021218780F080808E224FBFF7809E25B
:10118400FE08E2A807088005CEC313CE13D8F9FFE2
:10119400E4FCFD78131203F37813080808E2540101
:1011A400FFEF605D7813E2FC08E2FD08E2FE08E26E
:1011B4002402FFE43EFEE43DFDE43CFC781312030C
:1011C400F37813080808E25440FFEF6034780FE224
:1011D400FC08E2FD08E2FE08E22401FFE43EFEE42E
:1011E4003DFDE43CFC780F1203F37813E2FC08E2C3
:1011F400FD08E2FE08E2FF78011203CD7813120322
:10120400F37813E2FC08E2FD08E2FE08E2FF78014D
:101214001203CDEF540FFFE4FEFDFCC004C005C073
:1012240006C007780FE2FC08E2FD08E2FE08E2FFD0
:1012340078041203E0D003D002D001D000EF4BFFBA
:011244002287
:10258F007852EFF208EBF208EAF208E9F2E4FEFF04
:01259F002219
:0A2380007853EBF208EAF208E9F2E4
:10238A00786074FFF2087426F2087488F27B047D80
:04239A00131220AD4D
:01239E00221C
:042200007817EFF26A
:10220400E408F27817E2FF7D11122698EF54E06497
:10221400206019C3EF648094805006EF3395E0FE8C
:0F222400227818E204F2E2C3940540D7E4FEFFEB
:012233002288
:041F5800785DEFF2CF
:101F5C00081203FF000000001225DC1225DC1225FC
:101F6C00DC785EE2FB08E2F908E2FA08E2CBF8C0A2
:101F7C0000C001C002C003785DE2FF7B017D0B1243
:101F8C002694EE3395E0FDFCD003D002D001D000B6
:101F9C00EB2FFFEA3EFEE93DFDE83CFC785E1203C8
:0D1FAC00F31225DC785E0808E2FE08E2FF73
:011FB9002205
:07173A00781AEDF218EFF23E
:10174100E4781EF27D11122698781BEEF208EFF272
:10175100C3EE64809480500718E2FE08E2FF22E4A1
:10176100781BF208E2541FF2781EE2C39405504F31
:101771007819E2FF122200781DEFF26002805278A0
:101781001AE2603B7819E2FF7D11122698781DEF6D
:10179100F2541FFD3395E0FC18E2B5050718E2B5D8
:1017A1000402801B781DE2FFC36480948050028094
:1017B10058781BECF208EDF2781EE204F280A97869
:1017C10019E2FF08E2FB7D0B122694781DEFF2600F
:1017D10004E2FF8035E4781EF2781AE2603C781961
:1017E100E2FF7D11122698781DEFF2541FFF339509
:1017F100E0FE18E26F700318E26E6002801C781D33
:10180100E2FFC3648094805006EF3395E0FE2278B6
:0D1811001EE204F2E2C3940540BFE4FEFFB6
:01181E0022A7
:06266300E4FD12173A220B
:062669007D1112173A2258
:06266F007D1312173A2250
:0423FA00781FEFF267
:1023FE00ED543F2440FEFD12173AEF4E6001227855
:08240E001FE2FF7D1012269869
:0124160022A3
:0B1C68007821EDF208EBF27820EFF29B
:101C73001222007823EEF208EFF24E6002804478DD
:101C830020E2FF7D11122698E47827F2EF541F0813
:101C9300F27822E27825F27821E2543F24807826F4
:101CA300F27820E2FF783874FEF2087400F20874C8
:101CB30025F27B027D0A1220F67823EEF208EFF27A
:101CC3004E601618E2FE08E2FF22EF541FFD78284B
:101CD300E2B5051018E2B4000B7820E2FF7D111283
:101CE300269880E67823E2FE08E2FFC3EE64809440
:071CF30080500122E4FEFF16
:011CFA0022C7
:062675007D1212173A224B
:041BCE007829EFF291
:101BD200E4782CF2782CE254E06420600F7829E259
:101BE200FF7D11122698782CEFF280E8E4782AF231
:101BF200E4782BF27829E2FF7D11122698782CEFF7
:101C0200F2541F700280167829E2FFE4FB7D0B126A
:101C12002694782BE204F2E2C3940540D77829E2B5
:101C2200FF122675E4782BF27829E2FF7D11122645
:101C320098782CEFF2541F700B782BE204F2E2C377
:101C4200940540E47829E2FF7D11122698782CEF62
:101C5200F2541F6401600B782AE204F2E2C3940595
:051C6200408EE4FEFFCE
:011C6700225A
:03269F00FF000039
:102027004100960141009800410099004100970046
:0A20370041009A00812E28812D003F
:0F25BF00EFC3943AEF540F5002FF222409FF227A
:070AFE007858EDF208EBF25D
:100B0500785B7401F2EF20E003020BE3782DE2122B
:100B150004180B6F000B73010B77020B7B030B8221
:100B2500040B89050B8F080B93090B980A0B9E0B79
:100B35000BA50C0BAC0D0BB3100BB3110BB3120BB8
:100B4500B3130BB3140BB3150BB3160BB3170BC3BE
:100B5500200BC3210BC3220BC3230BC3240BC325BB
:100B65000BC3260BC32700000BD3AF808062AF9069
:100B7500805EAFA0805A900096E0FF80539000976A
:100B8500E0FF804C7819E6FF80467F0B80427F07A7
:100B95001225A0782EE2FF803790009AE0FF803082
:100BA500900098E0FF8029900099E0FF8022782D41
:100BB500E2247EF582E43400F583E0FF8012782D8F
:100BC500E22466F582E43400F583E0FF8002E4FF69
:100BD5001225A0782DE204F27858E214F222785A10
:100BE500E2F8E6782DF27859E214F2785B7401F2B6
:100BF5007859E2D394005003020DCA782DE212040D
:100C0500180C58000C73010C8E030C9E040CAE05D9
:100C15000CBD0A0CD40B0CE40C0CF40D0D04100DDA
:100C250004110D04120D04130D04140D04150D0407
:100C3500160D04170D1D200D1D210D1D220D1D2343
:100C45000D1D240D1D250D1D260D1D270D3AFF001B
:100C5500000DB8785BE2FF18E22FF8E6FF90269FBB
:100C6500E493FEF45F4280EE4F5280020DB8785B4C
:100C7500E2FF18E22FF8E6FF9026A0E493FEF45F6A
:100C85004290EE4F5290020DB8785BE2FF18E22FCA
:100C9500F8E6900096F0020DB8785BE2FF18E22FB7
:100CA500F8E6900097F0020DB8785BE2FF18E22FA6
:100CB500F8E67819F6020DB8785BE2FF18E22FF82E
:100CC500E6FF782EF2C2AF121EF1D2AF020DB87850
:100CD5005BE2FF18E22FF8E690009AF0020DB87873
:100CE5005BE2FF18E22FF8E6900098F0020DB87865
:100CF5005BE2FF18E22FF8E6900099F0020DB812BA
:100D0500267B785BE2FF18E22FF8E6FF782DE224D8
:100D15007EF582E43400801712267B785BE2FF18AB
:100D2500E22FF8E6FF782DE22466F582E43400F53B
:100D350083EFF0807E785BE2FF18E22FF8E6F4702F
:010D4500723B
:100D4600900096E0602E248DF582E43400F583E071
:100D5600647F6020900096E01425E024B4785CF26D
:100D6600900098E07007E2FF1208208007785CE2A6
:100D7600FF121F58900097E06035248DF582E43409
:100D860000F583E0647F6027900097E01425E02457
:100D9600B4785CF2A3E07007E2FF120820801078B6
:100DA6005CE2FF121F581225DC1225DC1225DC75C9
:020DB600EF103C
:100DB800782DE204F2785BE204F27859E214F20248
:020DC8000BF529
:010DCA002206
:10162F00E4784DF278ABF6784EF208F27851F20882
:10163F00F27855F208F278ABE6640D60687FAB1272
:10164F00243178ABE6FF640D605B1225BFEFC45405
:10165F00F0784EF27FAB12243178ABE6FF640D6069
:10166F00441225BF784EE22FF218E2700E08E2788E
:10167F0050F2FFE408F21225A080237850E230E008
:10168F000D784DE2B4010708E27852F280107851DC
:10169F00E204F2784EE2FF18E224ABF8A607784D89
:1016AF00E204F280917850E2FF54FE70117852E21A
:1016BF00FD18E2FB785A74ACF2120AFE804978509A
:1016CF00E2FF30E02F7852E2FD7BAC1224E078533A
:1016DF00EEF208EFF24E702F7852E2FF784FE2FEF3
:1016EF00C39F502374AC2EF8E6FF1225A0784FE26B
:1016FF0004F280E47850E2FF08E2FD7BAC12002692
:10170F007853EEF208EFF27855E2FE08E2FF4E60F2
:10171F0007EFF404FF1223687F0D122368120003F2
:0A172F00C2AF90009BE014F0D2AFAF
:01173900228D
:10045400E4784EF2784EE2FFC39403400302081F8F
:10046400EF7019900096E0FF248DF582E43400F5D6
:1004740083E0647F700302081FEF804F784EE2FF31
:10048400B40124900097E0FE7003020817748D2EC7
:10049400F582E43400F583E0647F7003020817906A
:1004A4000097E014FE8025EFB4022890009AE0FF44
:1004B400700302081F748D2FF582E43400F583E085
:1004C400647F700302081F90009AE01425E024B4AE
:1004D400784DF2784EE2FF7006900098E06011EFDC
:1004E400640160030206B8900098E060030206B855
:1004F4007819E630E015E478CAF608F6784DE2FF9C
:100504007DAB1218FC78C8A6068033784DE2FF78DC
:100514005274ABF27B0D7D2112223478CAA60608F0
:10052400A607784DE2FF7BFF7D211223BE78CBEF37
:1005340026F618EE36F678ABE6FF78C8760008A6FD
:1005440007C20578CBE61846600302081F784EE21E
:100554007005900096800A784DE2FF1226519000B3
:1005640097E025E004FF1225A01200037800E2FEC4
:1005740008E2FF1222D478C9E6FF1225A07819E612
:1005840030E07678C9E65403601C78ADE6FF1225A6
:10059400A078ACE6FF1225A078AFE6FF1225A0787C
:1005A400AEE6FF1225A078C9E630E20E78B1E6FF88
:1005B4001225A078B0E6FF1225A078C9E630E30E34
:1005C40078B3E6FF1225A078B2E6FF1225A078C919
:1005D400E630E40E78B5E6FF1225A078B4E6FF1203
:1005E40025A078C9E65403603778B7E6FF1225A042
:1005F40078B6E6FF1225A0802778C7760178C7E68B
:10060400FFC3940D501A74AC2FF8E6FF1225A0789E
:10061400C7E624ABF8E6FF1225A078C7060680DDFE
:100624007F0D122368120003300603020817784E68
:10063400E260030208177800E2FE08E27878A60672
:1006440008F678ABE6787BF678ADE6FE18E67C0033
:100654002400787DF6EC3E18F678AFE6FE18E62422
:1006640000787FF6EC3E18F678B1E6FE18E6240032
:100674007881F6EC3E18F678B3E6FE18E6240078A6
:1006840083F6EC3E18F678B5E6FE18E62400788585
:10069400F6EC3E18F678B7E6FE18E624007887F6FE
:1006A400EC3E18F6784DE2FF7B007A007976121D55
:1006B4008A020817784EE26007640160030207AEFD
:1006C400784DE2FF900098E004FB785274ABF27D21
:1006D4001212223478CAEEF608EFF678ABE6FD780B
:1006E400C8760008A605C205EF4E600302081F780D
:1006F4004EE270059000968003900097E025E00498
:10070400FF1225A01200037800E2FE08E2FF122285
:10071400D478C9E6FF1225A078C77601900098E046
:100724002401FFE433FE78C7E6FDC39FEE6480F83E
:10073400748098500E74AB2DF8E6FF1225A078C78C
:100744000680D97F0D1223681200033006030208C5
:1007540017784EE260030208177800E2FE08E27898
:100764008AA60608F678ABE6788DF678C776019007
:100774000098E02401FFE433FE78C7E6C39FEE64EB
:1007840080F8748098501478C7E6FF24ABF8E6FE2E
:10079400748E2FF8A60678C70680D4784DE2FF7BC6
:1007A400007A0079881225CE8069784EE26402705E
:1007B4006218E2FF785274ABF27B087D3012223467
:1007C40078CAEEF608EFF64E705190009AE025E0F4
:1007D40004FF1225A07800E2FE08E2FF1222D47F73
:1007E4001C1225A078AEE6FF1225A078ADE6FF1214
:1007F40025A078B0E6FF1225A078AFE6FF1225A069
:1008040078B2E6FF1225A078B1E6FF1225A07F0D8D
:0B081400122368784EE204F202045840
:01081F0022B6
:10255500EF14600A14600A2402700A8D80228D909F
:0625650022AF058FA02249
:10239F00EF14600C14600E2402700FAF807E0022C9
:0F23AF00AF907E0022AFA07E00227EFF7FFF2234
:04268C001223BE2235
:042690001222AD2243
:0A20AD00785DEFF208EDF208EBF2A7
:1020B700E47864F2785FE2FF7864E2FEC39F502819
:1020C700785DE2FF08E22EFD7860E2FB08E2FA089D
:1020D700E2F98E82758300120195FB12268C7863D4
:0E20E700EFF208E204F280CC7863E2FF7E00A4
:0120F50022C8
:102510007832E2F908E2FA08E27846C9F208EAF20B
:0725200008E9F21221C822B4
:0D25DC007FB47E5FEF1F70011EEF4E70F7A1
:0125E90022CF
:0D25EA007F927E09EF1F70011EEF4E70F70B
:0125F70022C1
:042694001223BE222D
:042698001222AD223B
:0A20F6007835EFF208EDF208EBF286
:10210000E4783CF27837E2FF783CE2FEC39F502847
:102110007835E2FF08E22EFD7838E2FB08E2FA08A3
:10212000E2F98E82758300120195FB122694783BAA
:0E213000EFF208E204F280CC783BE2FF7E0082
:01213E00227E
:102527007840E2F908E2FA08E27846C9F208EAF2E6
:0725370008E9F21221C8229D
:1024F8004DCDCDCDCDCDCDCD00000103070F1F3F74
:082508000000000000000000CB
:1020410048008E7F7F55535353537F4800860000CD
:1020510001020304050701D7FFC100C10101D6FF39
:10213F0020814278CFA6E1E4F5E1C287C290C29137
:10214F00C292C293C294C295C29618F678CE06E692
:10215F00B4FFF9D287D290D291D292D293D294D2A5
:10216F0095D296E478CEF678CE06E6B40AF978CF13
:05217F00E6F5E180BB64
:012184002238
:05267B0078D676FF2275
:101FBA00EF54FEFE6050EE78D666604AEF54FE2477
:101FCA004CFEC31378CDF6E6248EF582E43400F590
:101FDA0083E078D7F612213F78CCA6E153E1FB08DB
:101FEA00E62486F582E43400F583E0FE9024F89333
:101FFA00F5D4EE90250093F5D518E6F5E112213FC8
:06200A00EF54FE78D6F64B
:0120100022AD
:0A261100D202C203D2C52002FD224E
:0325F80012261197
:0A25FB00D202D203D2C52002FD2255
:101EF10053C17F53E6FEE4F5C8438E30FEFC7D1EE0
:101F01001201E4AB07AA06EA3395E0F9F8E47FB4DD
:101F11007E5FFD12003E1203AE8FCA85CACC75C822
:101F21000875C15F43C18043E60120812978BDA6C0
:101F3100E1E4F5E1C28718F678BC06E6B4FFF9D210
:101F4100873087FDE478BCF678BC06E6B40AF978F8
:061F5100BDE6F5E180D4BD
:011F57002267
:03003B00021A782E
:0D1A7800C0E0C0D075D000C000C001C007A4
:101A850030C204D200807DE5C054F024806050242B
:101A9500C0601F24E0706B78D7E625E0F5C253C21D
:101AA500FEA203E43342C2C2C578D176001876009F
:101AB500805230C122C20120034A78D0E6FFC378A4
:101AC500D596500D7849E22FF8E6F5C278D0068014
:101AD50033D2C4C202802DD2C4C202D2018025787D
:101AE500D1E6FF784AE22FF8A6C278D10679D1E788
:101AF500C378D4965004D2C1800AC202C2C1D2C4EE
:101B05008002D20030000E53C17F43C180C2C5C2DE
:071B1500C4C2C1C202C2C03C
:0B1B1C00D007D001D000D0D0D0E032C4
:06244B00F8A6071226119D
:102451003001057EFF7FFF223000057EFF7FFE22D7
:04246100E4FEFF2274
:10247E003001057EFF7FFF223000057EFF7FFE22AA
:09248E00784AE2F8E6FF7E002224
:1022AD00121FBA784A74D8F21874D2F2C200C20161
:1022BD0078D57601AF057849E2F8A60778D476018E
:0722CD001225F812247E2205
:1023BE00121FBA784974D2F2C200C20178D57602E1
:0F23CE00AF057849E2F8A607AF030412244B22AB
:10253E00121FBA784A74D8F2C200C20178D476015A
:07254E001225FB12247E227E
:10249700121FBA784974D2F2C200C20178D5760108
:0924A700AF057849E212244B2232
:10223400121FBA784974D2F27852E2784AF2C20094
:10224400C20178D57601AF057849E2F8A607AF0355
:0B22540078D4A6071225F812245122AE
:0221C800AC0366
:1021CA0078527408F2122234E47818F67818E6FF86
:1021DA00C39C501E74082FF8E6FE7846E2FB08E21C
:1021EA00FA08E2F98F82758300EE1201C2781806A6
:0521FA0080DAE4FEFFA5
:0121FF0022BD
:1024E000121FBA784AEBF2C200C201AF0578D4A637
:0824F000071225FB1224512202
:10002600121FBA7849EBF2C200C201AF0578D512A9
:03003600244C2235
:1018FC00121FBA784974D2F208EDF278D576011835
:10190C0076017849E2F876211226111225FB784AE5
:10191C00E2F8E6FF78D576027849E2F8762104F809
:10192C0076FF12261178D57601EF540360107849B2
:10193C00E2F8762178D4760D784AEDF2806CEF548B
:10194C001C24F8601C24FC603324FC602024F86008
:10195C003A241470457849E2F8762678D4760280D9
:10196C00257849E2F8762878D4760280287849E2FE
:10197C00F8762A78D47602ED2409802B7849E2F89F
:10198C00762678D47604ED2405801C7849E2F87626
:10199C002878D47604ED2407800D7849E2F8762671
:1019AC0078D47606ED2405784AF21226111225FB1E
:0219BC007E00AB
:0119BE002206
:03000000021CFBE4
:0F1CFB0053D9BF787FE4F6D8FD7581D8021D4517
:101D0A00021E0AE493A3F8E493A34003F68001F2C7
:101D1A0008DFF48029E493A3F85407240CC8C333DA
:101D2A00C4540F4420C8834004F456800146F6DFA9
:101D3A00E4800B0102040810204080902011E47E08
:101D4A00019360BCA3FF543F30E509541FFEE4939E
:101D5A00A360010ECF54C025E060A840B8E493A365
:101D6A00FAE493A3F8E493A3C8C582C8CAC583CA90
:101D7A00F0A3C8C582C8CAC583CADFE9DEE780BE48
:01206100007E
:10008600E709F608DFFA8046E709F208DFFA803E5C
:1000960088828C83E709F0A3DFFA8032E309F60849
:1000A600DFFA8078E309F208DFFA807088828C83B1
:1000B600E309F0A3DFFA806489828A83E0A3F60865
:1000C600DFFA805889828A83E0A3F208DFFA804C3F
:1000D60080D280FA80C680D4806980F28033801016
:1000E60080A680EA809A80A880DA80E280CA80337F
:1000F60089828A83ECFAE493A3C8C582C8CCC583F7
:10010600CCF0A3C8C582C8CCC583CCDFE9DEE780C6
:100116000D89828A83E493A3F608DFF9ECFAA9F045
:10012600EDFB2289828A83ECFAE0A3C8C582C8CC9B
:10013600C583CCF0A3C8C582C8CCC583CCDFEADEB4
:10014600E880DB89828A83E493A3F208DFF980CC16
:1001560088F0EF60010E4E60C388F0ED2402B4040F
:100166000050B9F582EB2402B4040050AF232345B6
:0601760082239000D67305
:10017C00BB010689828A83E0225002E722BBFE0281
:09018C00E32289828A83E49322B4
:10019500BB010CE58229F582E5833AF583E022501F
:1001A50006E92582F8E622BBFE06E92582F8E22269
:0D01B500E58229F582E5833AF583E4932283
:1001C200F8BB010DE58229F582E5833AF583E8F073
:1001D200225006E92582C8F622BBFE05E92582C81F
:0201E200F22207
:1001E400EF8DF0A4A8F0CF8CF0A428CE8DF0A42E2F
:0201F400FE22E9
:1001F600BB010A89828A83E0F5F0A3E022500687D4
:10020600F009E71922BBFE07E3F5F009E319228995
:0B021600828A83E493F5F074019322C8
:10022100BB0110E58229F582E5833AF583E0F5F01B
:10023100A3E0225009E92582F886F008E622BBFEF8
:100241000AE92582F8E2F5F008E222E5832AF5833E
:08025100E993F5F0A3E9932203
:10025900BB010789828A8302043E500B09C5F02736
:10026900F7C5F01937F722BBFE0D09F8E325F0F3BE
:10027900C5F019E338F322F889828A83740193253A
:08028900F0C5F0F8E4933822FF
:10029100E88FF0A4CC8BF0A42CFCE98EF0A42CFC0C
:1002A1008AF0EDA42CFCEA8EF0A4CDA8F08BF0A48A
:1002B1002DCC3825F0FDE98FF0A42CCD35F0FCEBE9
:1002C1008EF0A4FEA9F0EB8FF0A4CFC5F02ECD39AE
:0F02D100FEE43CFCEAA42DCE35F0FDE43CFC221B
:1002E00075F008758200EF2FFFEE33FECD33CDCCD5
:1002F00033CCC58233C5829BED9AEC99E582984058
:100300000CF582EE9BFEED9AFDEC99FC0FD5F0D634
:10031000E4CEFBE4CDFAE4CCF9A88222B800C1B95E
:100320000059BA002DEC8BF084CFCECDFCE5F0CB9C
:10033000F97818EF2FFFEE33FEED33FDEC33FCEBD5
:1003400033FB10D703994004EB99FB0FD8E5E4F990
:10035000FA227818EF2FFFEE33FEED33FDEC33FC7D
:10036000C933C910D7059BE99A4007EC9BFCE99A71
:10037000F90FD8E0E4C9FAE4CCFB2275F010EF2FB6
:10038000FFEE33FEED33FDCC33CCC833C810D707B6
:100390009BEC9AE899400AED9BFDEC9AFCE899F8F1
:0E03A0000FD5F0DAE4CDFBE4CCFAE4C8F92284
:10003E00C2D5E830E70FB2D5E4C39BFBE49AFAE4ED
:10004E0099F9E498F8EC30E717B2D5120074120360
:10005E001CE4C39BFBE49AFAE499F9E498F8800354
:10006E0012031C30D50DE4C39FFFE49EFEE49DFDFC
:04007E00E49CFC22E0
:0E03AE00C3E49FFFE49EFEE49DFDE49CFC2260
:1003BC00EB9FF5F0EA9E42F0E99D42F0E89C45F097
:0103CC00220E
:1003CD00E8600FECC313FCED13FDEE13FEEF13FF0E
:0303DD00D8F12232
:1003E000E8600FEFC333FFEE33FEED33FDEC33FC7B
:0303F000D8F1221F
:0C03F300ECF208EDF208EEF208EFF22246
:1003FF00D083D082E493F208740193F208740293CD
:09040F00F208740393F274047303
:10041800D083D082F8E4937012740193700DA3A373
:1004280093F8740193F5828883E473740293686087
:06043800EFA3A3A380DF87
:10043E00C5F0F8A3E028F0C5F0F8E5821582700249
:06044E001583E038F022E6
:00000001FF
